:100000000EC01DC01CC01BC01AC031C018C017C014
:1000100016C015C014C013C012C011C010C01124E6
:100020001FBECFE5D2E0DEBFCDBF20E0A0E6B0E04E
:1000300001C01D92A936B207E1F704D077C0E0CF26
:100040000895089581B781BF5CD0FADFFADFFECF53
:1000500080B7807F80BF80B7806880BF8CB58064A8
:100060008CBD8FEF8DBD80B7876080BF08951F92D4
:100070000F920FB60F9211242F933F938F939F935C
:10008000AF93BF938091610090916200A091630053
:10009000B09164003091600026E0230F2D3730F0DE
:1000A00029E8230F0396A11DB11D03C00296A11DCF
:1000B000B11D209360008093610090936200A09333
:1000C0006300B09364008091650090916600A091F8
:1000D0006700B09168000196A11DB11D8093650075
:1000E00090936600A0936700B0936800BF91AF91B2
:1000F0009F918F913F912F910F900FBE0F901F9066
:1001000018958AB582608ABD8AB581608ABD83B739
:10011000887F836083BF789489B7826089BF98DFC6
:1001200086B18877866886B9379A0895F894FFCFA4
:00000001FF
