:100000009EC0C2C0EEC0C0C0EBC6BEC0BDC0BCC0BA
:10001000BBC0BAC0B9C0B8C0B7C0B6C0B5C0FCC5D7
:10002000FDC5FEC5FFC500C601C602C62A2B2800B5
:100030000000000000000000000000000000002997
:10004000000000002C9EB4A0A1A2A434A6A7A5AED7
:10005000362D3738271E1F20212223242526B3338F
:10006000B62EB7B89F8485868788898A8B8C8D8EBB
:100070008F909192939495969798999A9B9C9D2F87
:100080003130A3AD350405060708090A0B0C0D0E27
:100090000F101112131415161718191A1B1C1DAF67
:1000A000B1B0B505010906A101050719E029E71559
:1000B00000250175019508810295017508256519CE
:1000C0000029658100C00902220001010080320977
:1000D00004000001030101000921010100012223A4
:1000E000000705810308000A120110010000000842
:1000F000C016DB2700010102000110034400690063
:10010000670069004B00650079001C03640069000A
:10011000670069007300740075006D0070002E00A8
:1001200063006F006D00040309040102040810203D
:10013000010101010101003800376004DD061124CE
:100140001FBECFE5D2E0DEBFCDBF10E0A0E6B0E03D
:10015000E2ECF3E102C005900D92AE38B107D9F799
:1001600021E0AEE8B0E001C01D92A230B207E1F795
:1001700011E0CEE3D1E003C02297FE01EED8CA33EE
:10018000D107D1F72BD81BC93BCFA82FB92F80E0BF
:1001900090E041E050EA609530E009C02D9182275F
:1001A0009795879510F084279527305EC8F36F5F89
:1001B000A8F30895EADF8D939D930895A6E088271C
:1001C0009927AA9569F00197E1F3B599FCCFB59B02
:1001D000FECF81E09927A6B3019611F0A872D9F756
:1001E0000895CF93CFB7CF93C395B59BE9F7B59B50
:1001F0000BC0B59B09C0B59B07C0B59B05C0B59B9F
:1002000003C0B59B01C0D5C00F92DF93C091E5003C
:10021000DD27C451DF4F012EB59B03C0DF910F9046
:10022000E6CF2F930F931F934F932FEF4F6F06B38C
:1002300005FB20F95F933F9350E03BE065C016B3A8
:100240000126502955FDC89556B3012705FB25F910
:100250002F7306B3B1F05027102715FB26F906B20D
:100260002230F0F000C016B3012705FB27F9012664
:10027000502906B22430E8F54F77206816B3000005
:10028000F6CF50274F7D206206B2102F000000C02D
:1002900006B300265029102715FB26F906B2E2CF37
:1002A0004F7B06B3206400C0DACF012650291872B4
:1002B00006B269F14E7F2160012F16B328C00026D7
:1002C00050294D7F06B22260102F29C001265029E7
:1002D0004B7F06B22460012F2DC016B30126502992
:1002E000477F2860000006B22EC04F7E06B3206113
:1002F00030C0422706B3499300265029102706B282
:100300004FEF15FB20F9297F16B379F2187259F1D6
:100310000126502906B2012705FB21F9237F06B3E8
:1003200071F2002650293150D0F006B2102715FB8B
:1003300022F9277E16B351F201265029012705FB29
:1003400006B223F92F7C49F2000006B3102715FBF3
:1003500024F90026502906B22F7939F270CF10E225
:100360001ABF002719C03B503195C31BD04010E283
:100370001ABF0881033C09F10B34F9F02091E30026
:100380001981110F1213EDCF4A81441F093651F123
:100390000D3211F0013E29F70093EA003F915F9181
:1003A0004F911F910F912F91DF910F90CAB7C5FD0B
:1003B0001BCFCF91CFBFCF9118952091EA00222378
:1003C00069F31091E800112379F534307AF1309314
:1003D000E8002093E4001091E5003BE0311B3093EE
:1003E000E50024C00091E8000130F4F40AE54F7004
:1003F00049F430916E0034FD1AC000936E00CCECCD
:10040000D0E019C03091D70034FD11C00093D7005F
:10041000C8EDD0E010C0052710E000C021C00527BE
:1004200010E0C89508BB14C03AE501C032ED032EB8
:10043000C0E0D0E032E017B31862C59A08B317BB2A
:1004400058E220E84FEF20FF052708BB27951795B6
:100450001C3F28F700004552B0F720FF05272795DD
:1004600008BB17951C3FB8F629913A9561F7077DAF
:100470001091E900110F08BBC250D04011F0109349
:10048000E30010E21ABF006217B3177D402F477DCB
:1004900054E05A95F1F708BB17BB48BB7FCF8EC21B
:1004A000EF92FF920F931F93CF93DF93EC01E62F10
:1004B000F0E0EC5DFF4FE4918E2F90E0880F892FE4
:1004C000881F990B892B19F080E2F82E01C0F12CBE
:1004D000EF77EE2E8091D70084FD08C06FD280E9BF
:1004E00090E50197F1F700C00000F4CF8E010E5F98
:1004F0001F4FFA82EB8262E0C8013CD28091D700A4
:1005000084FD08C05BD280E990E50197F1F700C057
:100510000000F4CF1B821A8262E0C8012BD281E076
:1005200090E0DF91CF911F910F91FF90EF90089590
:100530008F929F92AF92BF92CF92DF92EF92FF92F3
:10054000CF93DF9300D000D0CDB7DEB76B017C0135
:100550008ED44B015C011C141D041E041F049CF46A
:1005600086D4C61AD70AE80AF90AC80CD91CEA1CAC
:10057000FB1C69837A838B839C8320D269817A8177
:100580008B819C81E6CF0F900F900F900F90DF91A1
:10059000CF91FF90EF90DF90CF90BF90AF909F9062
:1005A0008F900895FC0189EB90E09093E700809391
:1005B000E60080818076803231F481818A3019F4BE
:1005C00083818093BB0080E00895FC01A489B589F4
:1005D000CD010196958B848BAA0FBB1FAE0FBF1F59
:1005E0006D937C930A9711F4158A148A08952F92BB
:1005F0003F924F925F926F927F928F929F92AF92B3
:10060000BF92CF92DF92EF92FF920F931F93CF93FF
:10061000DF933C01FC01C489D58959E7852E50E060
:10062000952EE12CF12C00E010E0212C312C412CF6
:10063000512C209711F0219702C0C9E0D0E0FE01B3
:10064000EE0FFF1FE60DF71D60817181F40121910E
:1006500031914F01882777FD8095982F442737FDEA
:100660004095542FFDD559016A01B62FA72FF82FB9
:10067000E92F9701A801B101C201EB2EFA2E0F2F2D
:100680001E2F60D679018A011B012C01FDE88F160F
:10069000F0E09F0671F60AE037D6C901DF91CF91ED
:1006A0001F910F91FF90EF90DF90CF90BF90AF9090
:1006B0009F908F907F906F905F904F903F902F9082
:1006C0000895CF93DF937AD1C0E9D0E061E08881CB
:1006D00015D461E0888149D464E670E080E090E060
:1006E00027DF60E0888141D464E670E080E090E03C
:1006F0001FDF61E0888139D464E670E080E090E03B
:1007000017DF60E0888131D464E670E080E090E03B
:100710000FDF8EEB90E071D264E08EEB90E071D24F
:1007200084E08093BE008FE492E09093C2008093B7
:10073000C10028E042E064E08EEB90E07CD2909330
:10074000970080939600DF91CF9108950F931F93A8
:100750008ED30091920010919300209194003091DB
:100760009500601B710B820B930B65307105810541
:10077000910508F47EC081EA90E039DF90938F0004
:1007800080938E0020919D0030919E00AC01421B11
:10079000530B9A012C503E4F30939C0020939B00AA
:1007A00090939E0080939D008091660090916700D9
:1007B000AC014D505E4F421753079CF58C509E4F35
:1007C0002091990030919A008217930754F161E0CB
:1007D00080919000CAD380919800813011F580916A
:1007E0006800909169000196909369008093680079
:1007F00020916A0030916B008217930721F41092C8
:10080000690010926800E0916800F0916900E45975
:10081000FF4F40E050E0608187EB90E0D7D410922A
:10082000980084EF91E02091660030916700821B70
:10083000930B20919B0030919C00821793072CF022
:1008400061E08091900091D30BC060E080919000B6
:100850008CD380919800811103C081E0809398002F
:1008600006D36093920070939300809394009093CA
:10087000950027E042E064E08EEB90E0DCD120912F
:10088000960030919700BC01621B730B7093A0001F
:1008900060939F00161617061CF481EA90E095DE1F
:1008A00061E070E080E090E043DE80919B009091F9
:1008B0009C0090939A00809399001F910F91089546
:1008C00083E790E09093B8008093B700F894BD9AC6
:1008D00027EA86E99CE0215080409040E1F700C083
:1008E0000000BD987FD178941092BA001092B900A0
:1008F00062E089EB90E03EC0DF92EF92FF920F93AF
:100900001F93CF93DF93C8E0D0E0F12C80E8E82E6E
:10091000DF2CDE0CD1BE52DC8C01043389E01807D9
:100920000CF4FD2CE694219799F78FEF8F0D81BF82
:10093000CF2DD0E0219681B790E0C817D9078CF071
:100940003DDC8453994097FF03C0919581959109AF
:100950008017910714F4F1B68C0181B78F5F81BFC6
:10096000EACFF1BEDF91CF911F910F91FF90EF90F1
:10097000DF900895CF93C62F2091D70024FF07C0A2
:100980002091D80038E823272093D80003C02AE517
:100990002093D700DC01E9EDF0E09C2F9E0F8D91B4
:1009A0008193892F8E1B1816D4F36C2F89ED90E05C
:1009B00001DCCC5FC093D700CF910895CF93DF9334
:1009C0008091E800835087FDA8C09091E5002091B8
:1009D000E4002D3209F09FC0883009F09CC0CCE0C3
:1009E000D0E0C91BD109C451DF4F83EC8093CC0008
:1009F0008AE580936E001092BD008881807619F0A0
:100A0000CE01D0DD7FC09A811092D50089818111FD
:100A100006C01092D60025ED30E082E06FC0853030
:100A200019F49093E90067C0863009F04EC08B81BD
:100A3000813041F488EE90E09093E7008093E600E7
:100A400082E13FC0823041F486EC90E09093E70071
:100A50008093E60082E235C08330F1F4911108C042
:100A600086E291E09093E7008093E60084E029C05D
:100A7000913041F48AE091E09093E7008093E600A2
:100A80008CE11FC09230E1F48AEF90E09093E70090
:100A90008093E60080E115C0813241F488ED90E05A
:100AA0009093E7008093E60089E00BC0823241F426
:100AB00083EA90E09093E7008093E60083E201C030
:100AC00080E090E49093BD001DC0883069F08930CB
:100AD00019F49093EB000FC08A3049F08B3059F431
:100AE0008BE48093D80007C02BEE30E002C025EDE8
:100AF00030E081E003C025ED30E080E03093E70096
:100B00002093E6009F81911104C09E81981708F4FC
:100B1000892F80936D001092E80080916E0084FF11
:100B200046C080916D008F3F09F441C0C82F8930C5
:100B300008F0C8E08C1B80936D008091CC0098E891
:100B400089278093CC00CC2331F12091E6003091AD
:100B5000E7008091BD0086FF0BC0ADECB0E0F9016D
:100B60008C2F8A0F94919D9331968A13FBCF09C0E5
:100B7000D901EDECF0E08C2F8E0F9D9191938E13A7
:100B8000FCCF8FEF8C0F90E00196820F931F909314
:100B9000E7008093E6006C2F8DEC90E00BDBCC5FE0
:100BA000CC3019F08FEF80936D00C0936E0084E11C
:100BB00096B3987231F48150D9F71092E9001092EF
:100BC000E300C1E08111C0E08091BC008C1739F0D6
:100BD000C11103C0F89490DE7894C093BC00DF91FB
:100BE000CF910895AB9A8BB780628BBF8BE48093D3
:100BF000D8008AE58093D700089517B883E886B9AE
:100C0000089517B8862F90E0FC013197E730F10581
:100C100088F4E15FFF4F099481E80BC082E809C0C6
:100C200083E807C084E805C085E803C086E801C002
:100C300087E886B908952F923F924F925F926F9204
:100C40007F928F929F92AF92BF92CF92DF92EF925C
:100C5000FF920F931F93CF93DF9300D01F92CDB7D6
:100C6000DEB78C01633031F0643039F0623041F02E
:100C7000312C08C0E3E03E2E05C072E0372E02C0E2
:100C800033243394433031F0443039F0423041F072
:100C9000712C08C053E0752E05C032E0732E02C0DF
:100CA0007724739481E090E0DC0102C0AA0FBB1F9F
:100CB0004A95E2F75A2EFC0102C0EE0FFF1F6A951B
:100CC000E2F74E2E6E2E6A2A262C209440E050E049
:100CD000C12CD12C7601A22EB12C4A155B050CF04B
:100CE0004FC0D8011396ED91FC9114972B83498343
:100CF0005A83099577B888B3852988BB87B3862935
:100D000087BBF801808190E0BED088B3822188BB88
:100D100087B3822187BB37B8369A5A8149812B81A4
:100D2000349BFECF349A84B095B037B888B3842909
:100D300088BB87B3862987BBD8018C9190E02B8331
:100D400049835A83A0D088B3822188BB87B382218C
:100D500087BB37B8369A5A8149812B81349BFECFA5
:100D6000349A84B195B188199909AA2797FDA0955D
:100D7000BA2FC80ED91EEA1EFB1E4F5F5F4FADCFC4
:100D800030E040E050E0C701B6014ED2C9010F90FB
:100D90000F900F90DF91CF911F910F91FF90EF90E7
:100DA000DF90CF90BF90AF909F908F907F906F908B
:100DB0005F904F903F902F90089581E08093BE0008
:100DC000089583B7887F83BF8AB58C7F81608ABD91
:100DD00083B7877F83BF83B7887F836083BF08958E
:100DE00078941F920F920FB60F9211242F933F9376
:100DF0008F939F93AF93BF938091C4009091C50050
:100E0000A091C600B091C7003091C3002CE7230F1A
:100E10002D3728F02FEF230F0196A11DB11D209330
:100E2000C3008093C4009093C500A093C600B09304
:100E3000C7008091C8009091C900A091CA00B091EC
:100E4000CB000196A11DB11D8093C8009093C900ED
:100E5000A093CA00B093CB00BF91AF919F918F91A7
:100E60003F912F910F900FBE0F901F9018952FB7A5
:100E7000F8946091C4007091C5008091C600909173
:100E8000C7002FBF08958E7F82309105E8F00000E3
:100E90000000000000000000000000000000000052
:100EA0000000000000000000000000000000000042
:100EB0000000000000000000000000000000000032
:100EC000000000000297E0CF0895789480B7806812
:100ED00080BF80B7806480BF8CB580648CBD8FEF8D
:100EE0008DBD80B7807F876080BF89B7846089BFF0
:100EF00068DF86B1876086B9379A0895CF93DF930C
:100F000090E0FC01E65DFE4F2491FC01E05DFE4FA8
:100F10008491882339F190E0FC01E85CFE4FA491B4
:100F2000B0E0FC01EA5CFE4F8491611106C09FB7FE
:100F3000F8948C912095822313C0623069F4C82FF5
:100F4000D0E09FB7F8948C91322F309583238C9307
:100F50008881822B888305C09FB7F8948C91822B5F
:100F60008C939FBFDF91CF910895A82FB0E0FD0132
:100F7000E65DFE4F9491FD01E05DFE4FE491EE23AE
:100F800011F1811103C08AB58F7304C0813021F43F
:100F90008AB58F7C8ABD05C0843019F48CB58F7CEE
:100FA0008CBDF0E0EA5CFE4FA491B0E02FB7611178
:100FB00005C0F8948C919095892303C0F8948C9186
:100FC000892B8C932FBF08950F931F93CF93DF939B
:100FD000EC018B01F80161918F01662341F0E881FA
:100FE000F9810190F081E02DCE010995F3CFDF91D9
:100FF000CF911F910F910895EF92FF920F931F933E
:10100000CF93DF937C018A01EB01060F171FC017F6
:10101000D10751F06991D701ED91FC910190F081D8
:10102000E02DC7010995F3CFDF91CF911F910F916B
:10103000FF90EF900895DC01ED91FC910190F0811B
:10104000E02D642F09944F925F926F927F928F925E
:101050009F92AF92BF92CF92DF92EF92FF920F9347
:101060001F93CF93DF93CDB7DEB7A0970FB6F89459
:10107000DEBF0FBECDBF5C01411551056105710595
:10108000D9F440E350E060E070E0A0960FB6F89429
:10109000DEBF0FBECDBFDF91CF911F910F91FF90AB
:1010A000EF90DF90CF90BF90AF909F908F907F9008
:1010B0006F905F904F90BFCF8E010F5F1F4FC12C7D
:1010C000D12C76014801422E512C612C712C8FEFCE
:1010D000C81AD80AE80AF80ACB01BA01A30192019A
:1010E00081D0CA01F80161938F01A901BC014115AA
:1010F00051056105710559F7F1E0CF1AD108E108F2
:10110000F108F401EC0DFD1D80818A3010F440E3FC
:1011100001C047E3480F552747FD5095652F752FB0
:10112000C50189DF81E0C81AD108E108F108EFEFB5
:10113000CE16DE06EE06FE0621F7A0960FB6F89450
:10114000DEBF0FBECDBFDF91CF911F910F91FF90FA
:10115000EF90DF90CF90BF90AF909F908F907F9057
:101160006F905F904F900895CF92DF92EF92FF9231
:10117000CF93DF93EC016A017B012115310539F42E
:10118000DF91CF91FF90EF90DF90CF9054CF2A3036
:10119000310591F477FF0FC020E030E04DE250E0E0
:1011A00060E070E0E1DFF094E094D094C094C11C62
:1011B000D11CE11CF11C2AE0B701A601CE01DF9190
:1011C000CF91FF90EF90DF90CF903DCF9A01462FC7
:1011D000552747FD5095652F752FC6CF76DE71DAFE
:1011E000B5DAFECFA1E21A2EAA1BBB1BFD010DC072
:1011F000AA1FBB1FEE1FFF1FA217B307E407F507C7
:1012000020F0A21BB30BE40BF50B661F771F881FA2
:10121000991F1A9469F760957095809590959B0138
:10122000AC01BD01CF010895052E97FB16F4009483
:101230000FD057FD05D0D6DF07FC02D046F408C01A
:1012400050954095309521953F4F4F4F5F4F0895F2
:1012500090958095709561957F4F8F4F9F4F089522
:1012600068940013E894A0E0B0E0E8E3F9E01DC062
:10127000EFEFE7F959016A015E23550FEE08FE2CE6
:1012800087019B01AC019E23990F660B762FCB0142
:1012900068D0CDB7DEB7EAE024C02F923F924F92DC
:1012A0005F926F927F928F929F92AF92BF92CF92F6
:1012B000DF92EF92FF920F931F93CF93DF93CDB7FF
:1012C000DEB7CA1BDB0B0FB6F894DEBF0FBECDBF77
:1012D00009942A88398848885F846E847D848C8448
:1012E0009B84AA84B984C884DF80EE80FD800C8151
:1012F0001B81AA81B981CE0FD11D0FB6F894DEBF34
:101300000FBECDBFED01089597FB10F816940008AD
:101310000F93083098F00850232F342F452F562F65
:10132000672F782F892F902DF4CF05949795879567
:101330007795679557954795379527950A95AAF715
:101340000F9108952A0D3B1D4C1D5D1D6E1D7F1DC7
:10135000801F911F0895EE0FFF1F0590F491E02D5F
:101360000994DF93CF939F92A0E49A2E0024D0019A
:10137000E001F00116950795F794E794D794C79488
:10138000B794A79448F41068A20FB31FC41FD51FC9
:10139000E61FF71F081E191E220F331F441F551F7B
:1013A000661F771F881F991F9A9421F79D01AE0130
:1013B000BF01C00111249F90CF91DF910895F8944F
:0213C000FFCF5D
:1013C2000000020180005000FFFF010020FF5A00D0
:1013D2000000005002E407FC07080027006100A893
:0E13E20000D900D900A8006100270008000013
:1015000037C055C081C053C052C051C050C04FC039
:101510004EC04DC04CC04BC04AC049C048C0040377
:1015200009041C037700770077002E00660069002D
:101530007300630068006C002E00640065000E03F9
:101540005500530042006100730070001201100149
:10155000FF000008C016DC050201010200010902BB
:1015600012000101008032090400000000000000A8
:1015700011241FBECFE5D2E0DEBFCDBF00EB0F933D
:1015800007E00F9310E0A0E6B0E0E2EAFFE102C05E
:1015900005900D92A636B107D9F710E0A6E6B0E0A7
:1015A00001C01D92A83AB107E1F72FD2F8C4A8CF25
:1015B000A82FB92F80E090E041E050EA609530E03C
:1015C00009C02D9182279795879510F0842795273C
:1015D000305EC8F36F5FA8F30895EADF8D939D93A3
:1015E0000895A6E088279927AA9569F00197E1F365
:1015F000B599FCCFB59BFECF81E09927A6B30196A4
:1016000011F0A872D9F70895CF93CFB7CF93C091B7
:101610005F02C03B21F4C0915E02C73021F0CF9140
:10162000CFBFCF916CCFCC27C395B59BE9F7B59BC6
:101630000BC0B59B09C0B59B07C0B59B05C0B59B4A
:1016400003C0B59B01C0D3C00F92DF93C0918B0044
:10165000DD27CE56DF4F012EB59B03C0DF910F90E3
:10166000E6CF2F930F931F934F932FEF4F6F06B338
:1016700005FB20F95F933F9350E03BE065C016B354
:101680000126502955FDC89556B3012705FB25F9BC
:101690002F7306B3B1F05027102715FB26F906B2B9
:1016A0002230F0F000C016B3012705FB27F9012610
:1016B000502906B22430E8F54F77206816B30000B1
:1016C000F6CF50274F7D206206B2102F000000C0D9
:1016D00006B300265029102715FB26F906B2E2CFE3
:1016E0004F7B06B3206400C0DACF01265029187260
:1016F00006B269F14E7F2160012F16B328C0002683
:1017000050294D7F06B22260102F29C00126502992
:101710004B7F06B22460012F2DC016B3012650293D
:10172000477F2860000006B22EC04F7E06B32061BE
:1017300030C0422706B3499300265029102706B22D
:101740004FEF15FB20F9297F16B379F2187259F182
:101750000126502906B2012705FB21F9237F06B394
:1017600071F2002650293150D0F006B2102715FB37
:1017700022F9277E16B351F201265029012705FBD5
:1017800006B223F92F7C49F2000006B3102715FB9F
:1017900024F90026502906B22F7939F270CF10E2D1
:1017A0001ABF002717C03B503195C31BD04010E231
:1017B0001ABF0881033CF9F00B34E9F0209189004D
:1017C0001981110F1213EDCF093651F10D3211F0BD
:1017D000013E39F7009390003F915F914F911F9127
:1017E0000F912F91DF910F90CAB7C5FD1DCFCF91FB
:1017F000CFBFCF91189520919000222369F31091CB
:101800008E00112321F5343022F130938E00209385
:101810008A0010918B003BE0311B30938B0019C084
:1018200000918E0001309CF40AE53091600034FD97
:1018300011C000936000CEE7D0E010C0052710E093
:1018400000C021C0052710E0C89508BB14C03AE5C8
:1018500001C032ED032EC0E0D0E032E017B31862D1
:10186000C59A08B317BB58E220E84FEF20FF0527C1
:1018700008BB279517951C3F28F700004552B0F785
:1018800020FF0527279508BB17951C3FB8F629911F
:101890003A9561F7077D10918F00110F08BBC25078
:1018A000D04011F01093890010E21ABF006217B304
:1018B000177D402F477D54E05A95F1F708BB17BBC1
:1018C00048BB8ACF80916900882361F0E0917A005B
:1018D000F0917B00329783E080935700E89507B63C
:1018E00000FCFDCFE0917A00F0917B00329785E01B
:1018F00080935700E89507B600FCFDCF1092690071
:101900000895AC0160917A0070917B0061157105BA
:1019100019F16430710501F124E16A3F720731F475
:10192000809167008195482F50E018C084E16C3F9A
:10193000780739F440917500509176004E575A4F10
:101940000DC0E4E16E3F7E0749F44091770050916D
:1019500078004D575A4F02C04FE75AEC242F30E021
:10196000250F311D8091670090916800820F931FB1
:1019700090936800809367006115710521F481E1FF
:1019800080935700E895F89481E0FB010A01809369
:101990005700E89511247894FB0185919491841760
:1019A000950731F08F5F9F4F19F081E080936900B8
:1019B0006E5F7F4F70937B0060937A000895CF93A2
:1019C000DF93C0917A00D0917B00CF73D0708FEFFE
:1019D0009FEF97DF2296C034D105CCF373DFDF9100
:1019E000CF910895E0ECF4E109C083E080935700C3
:1019F000E89507B600FCFDCFE054F0403097A9F71A
:101A000010927B0010927A00DACF14BE81B5886103
:101A100081BD11BCE0E0F0E0859194918F579A4C24
:101A200039F4E4E0F0E0859194918F579A4C09F0F5
:101A3000D9DF10927B0010927A0010926800109209
:101A40006700E0E0F0E0EE248491E80E319684E156
:101A5000EB3FF807C9F7AB9A8BB780628BBFBD9A93
:101A600088E893E1ECE9F1E03197F1F70197D1F7DC
:101A7000BD987894CC24DD2490918E00935097FDEE
:101A800028C180918B00CCE0D0E0C81BD109CE5694
:101A9000DF4F80918A008D3209F0C2C0983009F082
:101AA00016C183EC80937E008AE5809360001092DB
:101AB00072004881842F80762981882309F442C0EE
:101AC00031E0309366008BE690E090938D00809338
:101AD0008C002330B1F48A81803339F4EC81E370D7
:101AE000F0E0EE59FF4FE08108C08C3A29F48B8179
:101AF000803811F430936A00E0E0E0936E0024E057
:101B000085C0253011F421E081C0822F84508630B9
:101B100098F48A819B8190937B0080937A0029308E
:101B200079F09E8190937C008D81827080937D00FE
:101B300047FD68C09FEF66C0223011F430937900F2
:101B400020E064C08A8110928700222331F4109231
:101B5000880087E890E022E050C0253019F4809397
:101B60008F0048C02630B1F58B81813019F48CE4A8
:101B700095E104C0823041F48EE595E190938D00AB
:101B800080938C0022E122C08330F9F48A8188237B
:101B900041F48EE195E190938D0080938C0024E0D8
:101BA00015C0813041F482E295E190938D008093DD
:101BB0008C002CE10BC0823041F48EE395E19093D0
:101BC0008D0080938C002EE001C020E080E48093A3
:101BD00072001CC0283019F481E990E009C0293056
:101BE00019F48093910006C02A3021F487E890E030
:101BF00021E003C087E890E020E090938D0080937F
:101C00008C0004C080E88093720007C08F81882315
:101C100019F49E81921708F0922F9093610057C09B
:101C20008091720087FF53C080917C00092F891733
:101C300008F4082F801B80937C00FF24882311F474
:101C4000FF24F39410E03CC080917A0090917B00D7
:101C5000892B31F488819981909376008093750067
:101C600080917A0090917B00049731F4888199816A
:101C7000909378008093770080917A0090917B0018
:101C80008A5F944128F081E180935700E8951BC05A
:101C90001E5F8881998135DE80917A0090917B006A
:101CA0008F739070892B41F0FF2049F0101738F0A6
:101CB00080917D00882319F081E080936F00229647
:101CC000101708F4C1CFFF2011F01092610010929C
:101CD0008E008091600084FF8AC0809161008F3FF8
:101CE00009F485C0182F893008F018E0811B809313
:101CF000610080917E0098E8892780937E001123FF
:101D000009F463C08091720087FF43C080917C001A
:101D1000811708F4182F811B80937C00AFE7B0E097
:101D200030C0E0917A00F0917B0084918C93EF2B8E
:101D300019F4809175008C9380917A0090917B00CA
:101D4000019719F4809176008C9380917A0090919C
:101D50007B00049719F4809177008C9380917A002E
:101D600090917B00059719F4809178008C931196DF
:101D700080917A0090917B00019690937B008093F4
:101D80007A00812F90E081589F4FA817B90749F634
:101D90001AC0E0918C00F0918D0086FF09C0912F50
:101DA000AFE7B0E084918D9331969150D9F707C099
:101DB000912FAFE7B0E081918D939150E1F7F093CF
:101DC0008D00E0938C00193060F48FE790E0612F74
:101DD00004DC612F6C5F6C3041F08FEF8093610009
:101DE00004C08FEF809361006EE16093600094E126
:101DF00086B3887231F49150D9F710928F00109207
:101E0000890010E0992309F411E080917000811796
:101E100039F0112319F4F89482D07894109370005B
:101E20008CE991E00197F1F780916A00882369F0CD
:101E30008AE390E20197F1F7F894D4DD7894109258
:101E400068001092670010926A0080916F008823EA
:101E500011F18AE390E20197F1F7F89480917A000A
:101E600090917B008F739070892B11F0A8DD01C0D9
:101E700029DD789410926F0080917D00882359F0BD
:101E800080917A0090917B0090937400809373000E
:101E900081E08093710080917900882389F408940F
:101EA000C11CD11CEE2009F0E7CD8091660088238B
:101EB00009F0E2CD81E2C8168EE4D80608F4DCCD44
:101EC00082E291EA0197F1F7F8941BBE15BA80916E
:101ED0007100882389F08091730090917400909331
:101EE0007B0080937A0001C06ADD80917A00909136
:101EF0007B0080509541C0F3E0E0F0E090E08491F9
:101F0000980F319684E1EB3FF807C8F3992329F441
:101F100010925F0210925E02F1CAF2CAF9CFFF92EC
:101F20000F931F93CF93DF9300E080E8F82EC0E07B
:101F3000D0E01F2D100F11BF54DB9C0189E024332A
:101F400038070CF0102FF6942196C830D10511F007
:101F5000012FEFCF115011BF1F5F012FE90110C0FA
:101F600040DB8453994097FF03C0909581959F4F24
:101F70008C179D0714F401B7EC0181B78F5F81BF07
:101F800021B730E0812F90E001968217930744F744
:101F900001BFDF91CF911F910F91FF900895F894A9
:021FA000FFCF71
:061FA2005AFF1E930B0024
:0400000300001500E4
:00000001FF
