:101BC0000EC01DC01CC01BC01AC019C018C017C051
:101BD00016C015C014C013C012C011C010C011240B
:101BE0001FBECFE5D2E0DEBFCDBF20E0A0E6B0E073
:101BF00001C01D92A93AB207E1F74ED1E4C1E0CF8E
:101C0000E199FECF1CBA811522E0920710F08FEF08
:101C100091E09FBB8EBB6DBBE29AE19A0895CF9392
:101C2000DF9300D000D0CDB7DEB71C821B821C82B0
:101C30001B8226B3287030E086B3887090E02817A6
:101C40003907D1F386B3282F287012BE40E050E048
:101C5000822F90E026B3287030E082179307D1F3EB
:101C600032B712BE86B3282F28704830510530F0A5
:101C70008B819C81830F911D9C838B834F5F5F4F72
:101C80004031510529F78B819C8163E070E081D15F
:101C900035E0969587953A95E1F79A83898382B7DF
:101CA00049815A8190E084179507C8F3822F90E00C
:101CB00026B3287030E08217930799F426B3287072
:101CC00030E082179307D1F386B3282F287012BE15
:101CD00082B749815A8190E084179507C8F312BEF4
:101CE000E5CF86B3887048E352E070E068E090E0AA
:101CF00026B3287030E082179307D1F312BE26B3C3
:101D0000287082B7E981FA8190E08E179F07C8F3A7
:101D100086B38870E72FF0E0EE59FF4F9081990F5E
:101D2000281391609083615011F47F5F68E0415007
:101D30005109E9F681E00F900F900F900F90DF911D
:101D4000CF910895CF92DF92EF92FF926B017C01C9
:101D5000F894DB0183E0F60180935700E89507B61D
:101D600000FCFDCF20E030E061E0FA0170814E5FC1
:101D70005F4F3196808190E0982F8827870F911DC3
:101D8000C114D104E104F10459F42115310541F4E1
:101D90008F5F9F4B90936100809360008FED9DEC6F
:101DA000F901EA0FFB1F0C0160935700E89511241D
:101DB00007B600FCFDCF2E5F3F4F20343105A9F65A
:101DC00085E0F60180935700E89507B600FCFDCF4B
:101DD000FF90EF90DF90CF90089517BAF89413BE5C
:101DE000089542E050E06EEB7BE180E690E0E2D0C7
:101DF0008091600090916100892B31F0EEDFE091DD
:101E00006000F091610009940895E7DF80E89BE1AC
:101E1000A0E6B0E022E030E071E08E3B4BE19407B9
:101E200051F42115310539F04D915C9111972250F3
:101E30003109129603C0FC01459154916FB7F89493
:101E4000FC010A0170935700E89511246FBF0296B8
:101E5000803CFBE19F0709F7E199FECF8FB7F8942B
:101E6000E0E8FBE193E090935700E89507B600FCAB
:101E7000FDCFE0E8FBE195E090935700E89507B6C9
:101E800000FCFDCF91E190935700E8958FBFE09162
:101E90006000F09161000994B99ABB9882E083BF19
:101EA00016B3187003E03AE0F32EC0E1D7E242E047
:101EB000E42E82B7853668F012BE219751F488B3BC
:101EC0008E2588BBFA94F11002C0C1988ADFC0E168
:101ED000D7E286B3212F30E0887090E028173907C9
:101EE00019F016B3187001500111E3CFC19A97DEB3
:101EF00081110DC092E082B78536E8F312BE2197BA
:101F0000D1F788B3892788BBC8EED3E0F4CF10910E
:101F100062001330F9F01430F9F01230B9F5609125
:101F2000640070E0762F662780916300680F711D52
:101F300026E0660F771F2A95E1F7603C8BE1780772
:101F400028F580E090E049E650E0FCDE88B31827F1
:101F500018BB1CC05ADF1AC0D0906500E090630027
:101F6000E294EE0CEE0C80ECE82200E010E0F12CA4
:101F70000D1558F4F801EE59FF4F6781C8018E0D19
:101F80009F1D3EDE0F5F1F4FF3CF2BDF10926200CD
:101F9000AECF0024552704C0080E591F880F991F83
:101FA000009729F076956795B8F37105B9F7802DFC
:101FB000952F0895FB01DC0102C005900D92415060
:0A1FC0005040D8F70895F894FFCFC1
:0400000300001BC01E
:00000001FF
